{
  "contractName": "Project",
  "abi": [
    {
      "inputs": [
        {
          "internalType": "address payable",
          "name": "projectStarter",
          "type": "address"
        },
        {
          "internalType": "uint256",
          "name": "goal",
          "type": "uint256"
        },
        {
          "internalType": "uint256",
          "name": "deadline",
          "type": "uint256"
        },
        {
          "internalType": "string",
          "name": "title",
          "type": "string"
        },
        {
          "internalType": "string",
          "name": "description",
          "type": "string"
        }
      ],
      "payable": false,
      "stateMutability": "nonpayable",
      "type": "constructor"
    },
    {
      "anonymous": false,
      "inputs": [
        {
          "indexed": false,
          "internalType": "address",
          "name": "contributor",
          "type": "address"
        },
        {
          "indexed": false,
          "internalType": "uint256",
          "name": "amount",
          "type": "uint256"
        },
        {
          "indexed": false,
          "internalType": "uint256",
          "name": "currentTotal",
          "type": "uint256"
        }
      ],
      "name": "FundingReceived",
      "type": "event"
    },
    {
      "anonymous": false,
      "inputs": [
        {
          "indexed": false,
          "internalType": "address",
          "name": "prOwner",
          "type": "address"
        }
      ],
      "name": "ProjectOwnerPaid",
      "type": "event"
    },
    {
      "constant": true,
      "inputs": [],
      "name": "amountGoal",
      "outputs": [
        {
          "internalType": "uint256",
          "name": "",
          "type": "uint256"
        }
      ],
      "payable": false,
      "stateMutability": "view",
      "type": "function"
    },
    {
      "constant": true,
      "inputs": [
        {
          "internalType": "address",
          "name": "",
          "type": "address"
        }
      ],
      "name": "contributions",
      "outputs": [
        {
          "internalType": "uint256",
          "name": "",
          "type": "uint256"
        }
      ],
      "payable": false,
      "stateMutability": "view",
      "type": "function"
    },
    {
      "constant": true,
      "inputs": [],
      "name": "currentBalance",
      "outputs": [
        {
          "internalType": "uint256",
          "name": "",
          "type": "uint256"
        }
      ],
      "payable": false,
      "stateMutability": "view",
      "type": "function"
    },
    {
      "constant": true,
      "inputs": [],
      "name": "currentState",
      "outputs": [
        {
          "internalType": "enum Project.ProjectState",
          "name": "",
          "type": "uint8"
        }
      ],
      "payable": false,
      "stateMutability": "view",
      "type": "function"
    },
    {
      "constant": true,
      "inputs": [],
      "name": "deadLine",
      "outputs": [
        {
          "internalType": "uint256",
          "name": "",
          "type": "uint256"
        }
      ],
      "payable": false,
      "stateMutability": "view",
      "type": "function"
    },
    {
      "constant": true,
      "inputs": [],
      "name": "projectDescription",
      "outputs": [
        {
          "internalType": "string",
          "name": "",
          "type": "string"
        }
      ],
      "payable": false,
      "stateMutability": "view",
      "type": "function"
    },
    {
      "constant": true,
      "inputs": [],
      "name": "projectOwner",
      "outputs": [
        {
          "internalType": "address payable",
          "name": "",
          "type": "address"
        }
      ],
      "payable": false,
      "stateMutability": "view",
      "type": "function"
    },
    {
      "constant": true,
      "inputs": [],
      "name": "projectTitle",
      "outputs": [
        {
          "internalType": "string",
          "name": "",
          "type": "string"
        }
      ],
      "payable": false,
      "stateMutability": "view",
      "type": "function"
    },
    {
      "constant": false,
      "inputs": [],
      "name": "contribute",
      "outputs": [],
      "payable": true,
      "stateMutability": "payable",
      "type": "function"
    },
    {
      "constant": false,
      "inputs": [],
      "name": "checkFundingState",
      "outputs": [],
      "payable": false,
      "stateMutability": "nonpayable",
      "type": "function"
    },
    {
      "constant": false,
      "inputs": [],
      "name": "getRefund",
      "outputs": [
        {
          "internalType": "bool",
          "name": "",
          "type": "bool"
        }
      ],
      "payable": false,
      "stateMutability": "nonpayable",
      "type": "function"
    },
    {
      "constant": true,
      "inputs": [],
      "name": "getProjectDetails",
      "outputs": [
        {
          "internalType": "address",
          "name": "projOwner",
          "type": "address"
        },
        {
          "internalType": "string",
          "name": "title",
          "type": "string"
        },
        {
          "internalType": "string",
          "name": "description",
          "type": "string"
        },
        {
          "internalType": "uint256",
          "name": "amtGoal",
          "type": "uint256"
        },
        {
          "internalType": "uint256",
          "name": "currBalance",
          "type": "uint256"
        },
        {
          "internalType": "uint256",
          "name": "deadline",
          "type": "uint256"
        },
        {
          "internalType": "enum Project.ProjectState",
          "name": "currState",
          "type": "uint8"
        }
      ],
      "payable": false,
      "stateMutability": "view",
      "type": "function"
    }
  ],
  "bytecode": "0x60806040526000600660006101000a81548160ff021916908360028111156200002457fe5b02179055503480156200003657600080fd5b50604051620010b1380380620010b1833981810160405260a08110156200005c57600080fd5b81019080805190602001909291908051906020019092919080519060200190929190805160405193929190846401000000008211156200009b57600080fd5b83820191506020820185811115620000b257600080fd5b8251866001820283011164010000000082111715620000d057600080fd5b8083526020830192505050908051906020019080838360005b8381101562000106578082015181840152602081019050620000e9565b50505050905090810190601f168015620001345780820380516001836020036101000a031916815260200191505b50604052602001805160405193929190846401000000008211156200015857600080fd5b838201915060208201858111156200016f57600080fd5b82518660018202830111640100000000821117156200018d57600080fd5b8083526020830192505050908051906020019080838360005b83811015620001c3578082015181840152602081019050620001a6565b50505050905090810190601f168015620001f15780820380516001836020036101000a031916815260200191505b50604052505050846000806101000a81548173ffffffffffffffffffffffffffffffffffffffff021916908373ffffffffffffffffffffffffffffffffffffffff160217905550836002819055508260038190555081600490805190602001906200025e9291906200028b565b508060059080519060200190620002779291906200028b565b50600060018190555050505050506200033a565b828054600181600116156101000203166002900490600052602060002090601f016020900481019282601f10620002ce57805160ff1916838001178555620002ff565b82800160010185558215620002ff579182015b82811115620002fe578251825591602001919060010190620002e1565b5b5090506200030e919062000312565b5090565b6200033791905b808211156200033357600081600090555060010162000319565b5090565b90565b610d67806200034a6000396000f3fe6080604052600436106100a75760003560e01c8063bef3a08311610064578063bef3a0831461028b578063c3e20c9f146102b6578063ce845d1d14610346578063d7bb99ba14610371578063edda8fcb1461037b578063ff3a9c7e14610392576100a7565b80630785001c146100ac5780630c3f6acf146100d757806342e94c9014610110578063755f047b14610175578063a4475ce414610205578063b2d5ae441461025c575b600080fd5b3480156100b857600080fd5b506100c16104eb565b6040518082815260200191505060405180910390f35b3480156100e357600080fd5b506100ec6104f1565b604051808260028111156100fc57fe5b60ff16815260200191505060405180910390f35b34801561011c57600080fd5b5061015f6004803603602081101561013357600080fd5b81019080803573ffffffffffffffffffffffffffffffffffffffff169060200190929190505050610504565b6040518082815260200191505060405180910390f35b34801561018157600080fd5b5061018a61051c565b6040518080602001828103825283818151815260200191508051906020019080838360005b838110156101ca5780820151818401526020810190506101af565b50505050905090810190601f1680156101f75780820380516001836020036101000a031916815260200191505b509250505060405180910390f35b34801561021157600080fd5b5061021a6105ba565b604051808273ffffffffffffffffffffffffffffffffffffffff1673ffffffffffffffffffffffffffffffffffffffff16815260200191505060405180910390f35b34801561026857600080fd5b506102716105df565b604051808215151515815260200191505060405180910390f35b34801561029757600080fd5b506102a0610787565b6040518082815260200191505060405180910390f35b3480156102c257600080fd5b506102cb61078d565b6040518080602001828103825283818151815260200191508051906020019080838360005b8381101561030b5780820151818401526020810190506102f0565b50505050905090810190601f1680156103385780820380516001836020036101000a031916815260200191505b509250505060405180910390f35b34801561035257600080fd5b5061035b61082b565b6040518082815260200191505060405180910390f35b610379610831565b005b34801561038757600080fd5b506103906109ce565b005b34801561039e57600080fd5b506103a7610a3d565b604051808873ffffffffffffffffffffffffffffffffffffffff1673ffffffffffffffffffffffffffffffffffffffff168152602001806020018060200187815260200186815260200185815260200184600281111561040357fe5b60ff168152602001838103835289818151815260200191508051906020019080838360005b83811015610443578082015181840152602081019050610428565b50505050905090810190601f1680156104705780820380516001836020036101000a031916815260200191505b50838103825288818151815260200191508051906020019080838360005b838110156104a957808201518184015260208101905061048e565b50505050905090810190601f1680156104d65780820380516001836020036101000a031916815260200191505b50995050505050505050505060405180910390f35b60025481565b600660009054906101000a900460ff1681565b60076020528060005260406000206000915090505481565b60058054600181600116156101000203166002900480601f0160208091040260200160405190810160405280929190818152602001828054600181600116156101000203166002900480156105b25780601f10610587576101008083540402835291602001916105b2565b820191906000526020600020905b81548152906001019060200180831161059557829003601f168201915b505050505081565b6000809054906101000a900473ffffffffffffffffffffffffffffffffffffffff1681565b600060018060028111156105ef57fe5b600660009054906101000a900460ff16600281111561060a57fe5b1461061457600080fd5b6000600760003373ffffffffffffffffffffffffffffffffffffffff1673ffffffffffffffffffffffffffffffffffffffff168152602001908152602001600020541161066057600080fd5b6000600760003373ffffffffffffffffffffffffffffffffffffffff1673ffffffffffffffffffffffffffffffffffffffff1681526020019081526020016000205490506000600760003373ffffffffffffffffffffffffffffffffffffffff1673ffffffffffffffffffffffffffffffffffffffff168152602001908152602001600020819055503373ffffffffffffffffffffffffffffffffffffffff166108fc829081150290604051600060405180830381858888f1935050505015610733578060015403600181905550610781565b80600760003373ffffffffffffffffffffffffffffffffffffffff1673ffffffffffffffffffffffffffffffffffffffff168152602001908152602001600020819055506000925050610783565b505b5090565b60035481565b60048054600181600116156101000203166002900480601f0160208091040260200160405190810160405280929190818152602001828054600181600116156101000203166002900480156108235780601f106107f857610100808354040283529160200191610823565b820191906000526020600020905b81548152906001019060200180831161080657829003601f168201915b505050505081565b60015481565b600080600281111561083f57fe5b600660009054906101000a900460ff16600281111561085a57fe5b1461086457600080fd5b6000809054906101000a900473ffffffffffffffffffffffffffffffffffffffff1673ffffffffffffffffffffffffffffffffffffffff163373ffffffffffffffffffffffffffffffffffffffff1614156108be57600080fd5b34600760003373ffffffffffffffffffffffffffffffffffffffff1673ffffffffffffffffffffffffffffffffffffffff1681526020019081526020016000205401600760003373ffffffffffffffffffffffffffffffffffffffff1673ffffffffffffffffffffffffffffffffffffffff1681526020019081526020016000208190555034600154016001819055507f5cdc4ab8d637538ead6cc1904d4160343656c8c82bd266635cfd31ac008fffe03334600154604051808473ffffffffffffffffffffffffffffffffffffffff1673ffffffffffffffffffffffffffffffffffffffff168152602001838152602001828152602001935050505060405180910390a16109cb6109ce565b50565b60025460015410610a0b576002600660006101000a81548160ff021916908360028111156109f857fe5b0217905550610a05610bd0565b50610a3b565b600354421115610a3a576001600660006101000a81548160ff02191690836002811115610a3457fe5b02179055505b5b565b60006060806000806000806000809054906101000a900473ffffffffffffffffffffffffffffffffffffffff16965060048054600181600116156101000203166002900480601f016020809104026020016040519081016040528092919081815260200182805460018160011615610100020316600290048015610b025780601f10610ad757610100808354040283529160200191610b02565b820191906000526020600020905b815481529060010190602001808311610ae557829003601f168201915b5050505050955060058054600181600116156101000203166002900480601f016020809104026020016040519081016040528092919081815260200182805460018160011615610100020316600290048015610b9f5780601f10610b7457610100808354040283529160200191610b9f565b820191906000526020600020905b815481529060010190602001808311610b8257829003601f168201915b50505050509450600254935060015492506003549150600660009054906101000a900460ff16905090919293949596565b60006002806002811115610be057fe5b600660009054906101000a900460ff166002811115610bfb57fe5b14610c0557600080fd5b6000600154905060006001819055506000809054906101000a900473ffffffffffffffffffffffffffffffffffffffff1673ffffffffffffffffffffffffffffffffffffffff166108fc829081150290604051600060405180830381858888f1935050505015610cfd577f8c442c7a1830c2950281f9a31703a7d30fc58c5e911d6443b08a4085b371e24e6000809054906101000a900473ffffffffffffffffffffffffffffffffffffffff16604051808273ffffffffffffffffffffffffffffffffffffffff1673ffffffffffffffffffffffffffffffffffffffff16815260200191505060405180910390a16001925050610d2e565b806001819055506002600660006101000a81548160ff02191690836002811115610d2357fe5b021790555060009250505b509056fea265627a7a72315820dc6346940ec032b824f65ef00d3b6ab4256ada2e99a190e44627c9b1afe97fe764736f6c63430005100032",
  "source": "pragma solidity ^0.5.16;\n\ncontract Project{\n\n    //Project state enumeration\n    enum ProjectState{\n        FundRaising, expired, successful\n    }\n\n    //State variables \n    address payable public projectOwner;\n    uint256 public currentBalance;\n    uint public amountGoal;\n    //uint public completeAt;\n    uint public deadLine;\n    string public projectTitle;\n    string public projectDescription;\n    ProjectState public currentState = ProjectState.FundRaising;\n    mapping (address => uint) public contributions;\n\n    //Constructor for the contract\n    constructor(\n        address payable projectStarter,\n        uint goal,\n        // uint complete,\n        uint deadline,\n        string memory title,\n        string memory description\n    )public{\n        projectOwner = projectStarter;\n        amountGoal = goal;\n        //completeAt = complete;\n        deadLine = deadline;\n        projectTitle = title;\n        projectDescription = description;\n        currentBalance = 0;\n    }\n\n    event FundingReceived(address contributor, uint amount, uint currentTotal);\n    event ProjectOwnerPaid(address prOwner);\n\n    modifier verifyProjectState(ProjectState _state){\n        require(currentState == _state);\n        _;\n    }\n\n    function contribute() external verifyProjectState(ProjectState.FundRaising) payable {\n        require (msg.sender != projectOwner);\n        contributions[msg.sender] = contributions[msg.sender] + (msg.value);\n        currentBalance = currentBalance + (msg.value);\n        emit FundingReceived(msg.sender, msg.value, currentBalance);\n        checkFundingState();\n    }\n\n    function checkFundingState() public{\n        if(currentBalance >= amountGoal){\n            currentState = ProjectState.successful;\n            payProjectOwner();\n        }\n        else if(block.timestamp > deadLine){\n            currentState = ProjectState.expired;\n        }\n    }\n\n    function payProjectOwner() internal verifyProjectState(ProjectState.successful) returns(bool){\n        uint256 raisedAmount = currentBalance;\n        currentBalance = 0;\n\n        if(projectOwner.send(raisedAmount)){\n            emit ProjectOwnerPaid(projectOwner);\n            return true;\n        }\n        else{\n            currentBalance = raisedAmount;\n            currentState = ProjectState.successful;\n            return false;\n        }\n    }\n\n    function getRefund() public verifyProjectState(ProjectState.expired) returns(bool){\n        require(contributions[msg.sender]>0);\n        \n        uint refundAmount = contributions[msg.sender];\n        contributions[msg.sender] = 0;\n\n        if(msg.sender.send(refundAmount)){\n            currentBalance = currentBalance - refundAmount;\n        }\n        else{  \n            contributions[msg.sender] = refundAmount;\n            return false;   \n        }\n    }\n\n    function getProjectDetails() public view returns(\n        address projOwner,\n        string memory title,\n        string memory description,\n        uint amtGoal,\n        uint currBalance,\n        uint deadline,\n        ProjectState currState\n    ){\n        projOwner = projectOwner;\n        title = projectTitle;\n        description = projectDescription;\n        amtGoal = amountGoal;\n        currBalance = currentBalance;\n        deadline = deadLine;\n        currState = currentState;\n    }\n}\n\n",
  "sourcePath": "/Users/kevin/Desktop/My files /Projects/BlockChain/crowdfunding/contracts/Project.sol",
  "compiler": {
    "name": "solc",
    "version": "0.5.16+commit.9c3226ce.Emscripten.clang"
  },
  "schemaVersion": "3.2.5",
  "updatedAt": "2020-10-03T08:32:42.605Z",
  "devdoc": {
    "methods": {}
  },
  "userdoc": {
    "methods": {}
  }
}